:060000000A128A11122809
:10000800FE00030EF2000408F3000A08F40083124D
:1000180003137F08F5000A128A154B290A128A1160
:1000280015280A128A1500200A128A11E2000A12FB
:100038008A1501200A128A11E3000A128A15022081
:100048000A128A11E400831790308400DB300A1604
:100058008A113E270A128A111030840050300A167D
:100068008A113E270A128A118313A0308400DC30DB
:100078000A168A113E270A128A1149308400623012
:100088000A168A113E27F701F801F901FA01FB0166
:10009800FC0183010A128A11D42CFF0000308A0067
:1000A8007F08820756280A128A15982B0A168A1181
:1000B800502F0A128A15272B0A128A11FF2F0A12AB
:1000C8008A15202E0A128A154D2A0A128A15CB285B
:1000D8000A128A159C290A128A1175280A168A1189
:1000E800D42F0C3083120313A4002408A0005C084A
:1000F8000A168A116C270A128A11A03E831203136A
:10010800A5002508A9002908840083130008A40075
:100118002408A6002608A40001300310A40DFF3E01
:10012800031D91280310240DC43E84000008A50077
:100138002508AB002B08803EA400FF3003180030D0
:10014800A500A51BAE282B08803EA700FF3003188A
:100158000030BD282B08803EA400FF300318003073
:10016800A500A409A509A40A0319A50A2408A7003B
:100178002508A8002808803AFF0080307F02031D68
:10018800C72820302702031C080083120313290AFA
:10019800840083130008A4002408AA002A08A400E5
:1001A80001300310A40DFF3E031DD5280310240DB4
:1001B800033EC43E840080012A08A40001300310D5
:1001C800A40DFF3E031DE3280310240D023EC43E88
:1001D80084008001800A1630A4002408E300080087
:1001E80083120313E001C030A000200888050A30FC
:1001F800A0002008E3000800FF1B0A2983137F18CA
:1002080083170008840A0319FF0A08007F087F394A
:100218008A000408840A0319FF0A8200F634F634B7
:10022800F634F634F634F634F634F734F734F83472
:10023800F834F934FA34FA34FB34FB34FC34FC3443
:10024800FD34FD34FE34FE34FF34FF340034003412
:10025800303431343234333434343534363437345A
:100268003834393461346234633464346534663420
:1002780030340734C43403347934003472340034ED
:1002880075340034593401347B3400346E3400340E
:10029800793400345A340134793400345A3401340E
:1002A800783400345B340134793400345634013402
:1002B8007E340034693400347E3400345A340134D6
:1002C800783400346A3400347D3400345A340134CC
:1002D800793400346F340034783400346A340034AC
:1002E8007D3400346D3400347B3400346D34003494
:1002F80079340034553401347D3400346D3400349D
:100308007A3400345A3401347A340034583401349D
:100318007B3400346E3400347A3400346D34003465
:1003280079340034693400347F3400346D34003457
:100338007A340034553401347D3400345A3401346D
:100348007A34003472340034753400346E34003436
:100358007A340034553401347D3400345F34013448
:10036800743400345F340134753400345A34013441
:100378007A3400346D3400347A3400346C342034E8
:100388002C340734C6340134783400342E3407341E
:10039800C33403347D3400346F340034783400348B
:1003A800573401347E340034693400347C340034EA
:1003B8005F340134743400345C34013478340034EC
:1003C8005F340134743400345F34013476340034DB
:1003D80071340034743400345B34013478340034BC
:1003E80073340034743400345B34013478340034AA
:1003F8007034003477340034733400347434003487
:100408007034003479340034713400347434003476
:10041800563401347D3400346F3400347834003479
:1004280073340034743400345A3401347934003469
:100438005B340134793400345B340134783400346B
:1004480073340034743400346F3400347934003435
:100458005934013479340034563401347D3400344D
:100468005F34013474340034733400347434003429
:100478006E34003479340034733400347534003405
:100488005A340134793400345B340134793400341B
:100498006F3400347A34003466342034303407340E
:1004A800C6340134793400342F340734C634033465
:1004B80078340034633400348434003455340134DF
:1004C8007E34003473340034753400345E340134BF
:1004D80075340034563401347D34003454340134D6
:1004E8007E340034573401347D3400346F340034A2
:1004F80078340034563401347C3400346F3400349A
:10050800793400345F340134743400347234003484
:100518007534003470340034773400347334003464
:100528007434003470340034773400345B3401346C
:10053800783400346B3400347E3400345934013458
:100548007934003473340034743400346B34003438
:100558007D3400345A340134793400346E34003434
:10056800793400345A340134783400346B3400342C
:100578007C3400345B340134783400347234003411
:10058800763400345B340134773400345734013422
:100598007C3400346E340034793400345E340134F1
:1005A8007434003472340034753400345B340134EC
:1005B800783400345D3420343A340734C734013495
:1005C8007A34003430340734C73403347834003490
:1005D80073340034753400345A34013479340034B7
:1005E8006E3400347A3400345B34013477340034A8
:1005F8005B340134783400345A34013479340034AB
:100608005E34013475340034733400347534003486
:100618005A340134783400346B3400347C34003478
:100628005A340134793400346E3400347934003467
:100638006E340034793400346E3400347A34003443
:100648006A3400347D3400345A3401347834003448
:100658005F34013474340034583401347B3400344A
:100668006F340034783400346F3400347834003414
:100678005B340134783400346F3400347834003417
:100688005A34013479340034733400347434003407
:100698006F34003479340034683400347E340034E4
:1006A8005D340134763400345B34013478340034FA
:1006B8006F340034783400345B34013479340034D6
:1006C8006F34003478340034573401347C340034C7
:1006D8006334203436340734BF3401347A34003478
:1006E80037340734C3340334793400346E34003477
:1006F80079340034553401347E3400347134003494
:10070800773400345B340134773400345A3401349C
:10071800793400345C34013478340034553401348D
:100728007E3400346A3400347D3400345F3401345C
:10073800753400346A3400347D3400345A3401345A
:10074800793400347334003474340034733400342E
:10075800753400346D3400347A3400347234003423
:10076800753400345B340134773400345634013442
:100778007D3400346A3400347D3400346C34003401
:100788007B340034553401347E3400345934013418
:100798007B340034683400347E3400345B340134F4
:1007A8007834003470340034773400346E340034D4
:1007B80079340034573401347C3400345C340134E7
:1007C8007834003473340034743400346B340034B7
:1007D8007E3400345A340134783400346F340034B1
:1007E800773400345C34013478340034683420348D
:1007F80030340734C13401347A34003430340734A7
:10080800CC340334743400346F3400347834003416
:100818005B34013479340034733400347434003474
:100828005B34013479340034573401347D34003476
:100838005B340134783400345B3401347834003468
:100848006F340034773400345B3401347934003445
:1008580073340034743400345F3401347434003435
:100868006F34003478340034733400347434003412
:100878007334003474340034733400347534003401
:100888005E34013474340034733400347434003406
:100898006F340034783400347434003475340034E0
:1008A8005D340134753400345B34013477340034FA
:1008B80073340034743400345C34013477340034D5
:1008C80073340034743400345D34013476340034C5
:1008D8005C340134773400345F34013474340034C8
:1008E8007034003477340034743400347434003491
:1008F8005E340134753400346E3400347834003496
:10090800563401347E3400346334203434340734AC
:10091800C63401347A340034023484344734003421
:100928007434833447340134E6348234473402342F
:100938005834823447340334CA3481344734053454
:100948003C348134473404340A340A340A340A34CF
:10095800573465346C3463346F346D346534203403
:1009680074346F34203446342D34333435342034E1
:100978006E346F347A347A346C3465340A34003423
:1009880065346E3463346F3464346534723473346C
:100998003D34003473347434653470343D34003479
:1009A800831203138817831603138813C030831226
:1009B8000313BD003D088805C030BD003D088316FF
:1009C80003138805FC010E309900243098009030FC
:1009D800831203139800831603138C160B168B10BF
:1009E800011383120313D801E401E40A07309200CB
:1009F800FF30831603139200831203138C1083169F
:100A080003138C143130831203139000EF308F00DE
:100A1800C4308E000030A000A1001830A2000030C1
:100A2800A300C4300A168A11B6270A128A11813027
:100A3800831203139F004930831603139F0081120A
:100A48008312031381010B110B178B17A830A20017
:100A58008430A3000A128A1503200A128A1108306A
:100A680083120313BD003D0883160313C0001F3013
:100A780083120313BD003D0883160313C10005301C
:100A880083120313BD003D0883160313B800043016
:100A980083120313BD003D0883160313B900023007
:100AA80083120313BD003D0883160313BA00BB016C
:100AB800BB0AFC3083120313BD003D0883160313E1
:100AC800BC00033083120313BD003D0883160313D3
:100AD800BD00C301C30A113083120313BD003D08D2
:100AE80083160313B400293083120313BD003D0895
:100AF80083160313B500023083120313BD003D08AB
:100B080083160313AC00033083120313BD003D08A2
:100B180083160313AD00203083120313BD003D0874
:100B280083160313AE00103083120313BD003D0873
:100B380083160313AF00CF3083120313BD003D08A3
:100B480083160313B000303083120313BD003D0831
:100B580083160313B100063083120313BD003D084A
:100B680083160313A8002D3083120313BD003D081C
:100B780083160313A900A001A00AA101083083125B
:100B88000313BD003D0883160313A200043083122B
:100B98000313BD003D0883160313A300F33083122B
:100BA8000313BD003D0883160313A4000C30831201
:100BB8000313BD003D0883160313A5008312031316
:100BC800C801193048020318622F4808123E8400F1
:100BD80081300318013EFF000A128A1100210A120F
:100BE8008A11BD000330BE003E08A00048080A165E
:100BF8008A116C270A128A11903E8400831203130B
:100C08003D08831780000030B0000030AF0000308E
:100C1800AE001830AD008316031334088312031393
:100C2800BD00BE01BD1BBE03BD09BE09BD0A031937
:100C3800BE0A83160313350883120313BF00C001CD
:100C4800BF1BC0033D083F07A0003E0803183E0A2B
:100C58004007A100A201A11BA2032208A300480883
:100C6800C100C201C301C4014408A7004308A6008B
:100C78004208A5004108A4000A128A150A210A128E
:100C88008A11831203132308B4002208B300210831
:100C9800B2002008B1000A128A15ED210A128A1141
:100CA800831603133408831203132D07C50003307A
:100CB800C6004608A00048080A168A116C270A12BE
:100CC8008A11013E903E840083120313450883175E
:100CD80080000030B0000030AF000030AE001830A7
:100CE800AD0083160313400883120313BD00BE0131
:100CF800BD1BBE03BD09BE09BD0A0319BE0A831682
:100D08000313410883120313BF00C001BF1BC003B4
:100D18003D083F07A0003E0803183E0A4007A1000F
:100D2800A201A11BA2032208A3004808C100C20116
:100D3800C301C4014408A7004308A6004208A5004F
:100D48004108A4000A128A150A210A128A1183127C
:100D580003132308B4002208B3002108B2002008B6
:100D6800B1000A128A15ED210A128A11831603139B
:100D78004008831203132D07C5000330C600460838
:100D8800A00048080A168A116C270A128A11023E26
:100D9800903E840083120313450883178000CE30E9
:100DA800A2008430A3000A128A1503200A128A11AD
:100DB800831203134808BD00BE013D08B0003E0879
:100DC800B1000A168A115C270A128A11C4308312EC
:100DD8000313A2008430A3000A128A1503200A1202
:100DE8008A11033083120313BD003D08A000480890
:100DF8000A168A116C270A128A11903E84008317FA
:100E0800000883120313B000B101B01BB1030A122A
:100E18008A11D7270A128A11033083120313BD00DF
:100E28003D08A00048080A168A116C270A128A1180
:100E3800013E903E84008317000883120313B0001C
:100E4800B101B01BB1030A128A11D7270A128A11FD
:100E5800033083120313BD003D08A00048080A169A
:100E68008A116C270A128A11023E903E8400831769
:100E7800000883120313B000B101B01BB1030A12BA
:100E88008A11D7270A128A11C23083120313A200CB
:100E98008430A3000A128A1503200A128A110A163E
:100EA8008A1146270A128A11013083120313BD00E2
:100EB8003D08C80719304802031CE92D6400831255
:100EC80003136008031D6C2FC030BD003D08DB050F
:100ED8000A168A117F270A128A11831203135E08E1
:100EE8000319C12FDE01C801033048020318A02FDF
:100EF8000C30BD003D08A00048080A168A116C276E
:100F08000A128A11A03E83120313BE003E08C700CE
:100F18004708063E8400831300080319982F4708E2
:100F2800063E8400013080020130BD003D08C8073C
:100F380003304802031C7C2F0130BD003D08DD074B
:100F480055080319A92F0130D5026008031DC12FC8
:100F58000130BD003D08DF0732305F02031CC12F9E
:100F6800DF010310881F0314031CBE2F8312031311
:100F78008817C12F8312031388130A128A15B72200
:100F88000A128A118312031362080A128A11512065
:100F98000A128A118312031363080A128A11512054
:100FA8000A128A11622F83120313B11FEF2F2D30FB
:100FB8000A168A1199270A128A1183120313300913
:100FC800B2003109B300B20A0319B30A3208AE00FD
:100FD8003308AF00F52F831203133108AF00300830
:100FE800AE000A128A1560250A128A1120300A16E4
:100FF8008A1199270800080004340A34013483123E
:1010080003132308FF00220884000A128A11002112
:101018000A128A15003A03190800831203132308D9
:10102800FF00220884000A128A1100210A128A1578
:101038000A168A1199270A128A1501308312031396
:10104800A2070318A30A032883120313E001E00A86
:1010580088170230A0002008DC000830A000200813
:1010680083160313BF00C201113083120313A000BB
:10107800200883160313B300B6018316031710085C
:10108800163E83120313A000200883160313A7003B
:10109800AA0183120313E1011630A0002008D90029
:1010A8000730A0002008E300080083120313280873
:1010B800290403198828AD01AD0AA91B6F2801303E
:1010C8000310A80DA90DFF3E031D64280130AC00D4
:1010D8002C08AD07612829082B02031D752828084C
:1010E8002A02031C7D282808AA022908031CAB032E
:1010F800AB0201300310A90CA80CFF3E031D7E288B
:101108000130AD02031D6F282B08A9002A08A8008A
:10111800080083120313A501A6012008210403195E
:10112800C628A701A70AA11BA52801300310A00DF6
:10113800A10DFF3E031D9A280130A4002408A7072B
:10114800972801300310A50DA60DFF3E031DA62804
:1011580021082302031DB22820082202031CBB28F1
:101168002008A2022108031CA303A30225140130AE
:101178000310A10CA00CFF3E031DBC280130A702E0
:10118800031DA5282608A1002508A00008000C308A
:1011980083120313A4002408A0005C080A168A110D
:1011A8006C270A128A15A03E83120313A50025088E
:1011B800A7002708063E840083130008031D0800C3
:1011C800270A84000008A4002408A600FE28DC01E1
:1011D800DC0A0730A4002408E3000800DC0107301B
:1011E800A4002408E3000800DC010D30A400240852
:1011F800E30008005C08003A0319F828013A0319CB
:10120800F228033A0319EB28F82808000030831263
:101218000313AC000030AB000030AA000030A90076
:10122800201C2A292408A907250803110318013EB0
:10123800031DAA07260803110318013E031DAB0767
:10124800270803110318013E031DAC070130A8004D
:101258000310A40DA50DA60DA70DA80B2C29013070
:101268000310A30CA20CA10CA00CFF3E031D3429F3
:101278002308220421042004031D14292C08A30098
:101288002B08A2002A08A1002908A0000800FA01DA
:101298007A08031D9129FA01FA0A0C1C63290C101B
:1012A800EF308F00C4308E00DE01DE0A0808C03936
:1012B800F0007008F60076085B048800FA018C1EBE
:1012C8006D298C121A08F0007008FB00FC01FC0A5A
:1012D800FA018C1C75298C100130F0007008D307B6
:1012E800FA018B1C4C298B101108F000F1017008D1
:1012F800CF007108D00091018C105308F000F10163
:101308007008F100F0017008CF047108D004D3010F
:101318000130F0007008D4004B297508FF007408EC
:101328008A0073088400720E8300FE0E7E0E090088
:101338000C3083120313A4002408A0005C080A16CA
:101348008A116C270A128A15A03E83120313A5007E
:101358002508A800280A840083130008A40024088C
:10136800A7002708A40001300310A40DFF3E031DA9
:10137800B8290310240D033EC43E84000008803AB7
:10138800A5000C30A6002608A0005C080A168A11E1
:101398006C270A128A15073EA03E840083130008B2
:1013A800803A83120313A502031C08002808053E8F
:1013B80084000008A4002408DB043230A4002808B4
:1013C800063E8400240880001330A4002408E300AB
:1013D8000800003083120313B9000030B800003051
:1013E800B7000030B60030082F042E042D0403196E
:1013F800442ABA01BA0AB01B0F2A0130B5000310FB
:10140800AD0DAE0DAF0DB00DB50B032A0130B50013
:101418003508BA07FF290130B5000310B60DB70D1E
:10142800B80DB90DB50B112A30083402031D262A50
:101438002F083302031D262A2E083202031D262AEE
:101448002D083102031C372A2D08B1022E08031C6F
:101458002E0FB2022F08031C2F0FB3023008031CF3
:10146800300FB402361401300310B00CAF0CAE0CC0
:10147800AD0CFF3E031D382A0130BA02031D0F2AA6
:101488003908B0003808AF003708AE003608AD009C
:1014980008000C3083120313A4002408A0005C0881
:1014A8000A168A116C270A128A15A03E83120313A2
:1014B800A5002508A9002908840083130008A400B2
:1014C8002408A6002608A40001300310A40DFF3E3E
:1014D800031D692A0310240DC43E84000008A500DA
:1014E8002508AA002A08803EA400FF30031800300F
:1014F800A500A51B862A2A08803EA700FF300318EE
:101508000030952A2A08803EA400FF3003180030D6
:10151800A500A409A509A40A0319A50A2408A70077
:101528002508A8002808803AFF0080307F02031DA4
:101538009F2A20302702031C08008312031329085E
:10154800043E840083130008A4002408DB051C3033
:10155800A4002408E3003230A4002908063E8400D1
:10156800240880000800831203135308B800B90147
:101578003808B900B8013808BA003908BB00753016
:101588003B02313003193A02031CEE2A6408031D9A
:10159800EE2A8B138316031301138312031391018D
:1015A8008C108B17D801BC0106303C020318E92ABD
:1015B8003C08493E8400831380010130B800380894
:1015C800BC0706303C02031CDC2AE401E40AD7010C
:1015D800D401881757080319042B5508031D042B39
:1015E800043056060319042B3F305B05B8003F3022
:1015F8003806031D042B0A128A150B240A128A15B1
:1016080083120313540803190800D4010310831626
:101618000313011F0314031C152B8316031301174F
:10162800182B831603130113831203135008D200D7
:101638004F08D10064080319232BE40108000A129B
:101648008A15F92608000C3083120313A400240815
:10165800A0005C080A168A116C270A128A15A03E97
:1016680083120313A5002508A90029088400831301
:101678000008A4002408A6002608A40001300310CE
:10168800A40DFF3E031D432B0310240DC43E84000C
:101698000008A5002508AA002A08803EA400FF30FB
:1016A80003180030A500A51B602B2A08803EA70060
:1016B800FF30031800306F2B2A08803EA400FF304B
:1016C80003180030A500A409A509A40A0319A50A4E
:1016D8002408A7002508A8002808803AFF008030C1
:1016E8007F02031D792B20302702031C822B0A302E
:1016F80083120313A4002408E300080083120313D1
:101708002908043E840083130008A4002408DB058C
:101718002908023E84000008A4002408DB041030D5
:10172800A4002408E3000800831203130C1F080018
:101738005A08A00001300310A00DFF3E031D9F2B87
:101748000310200DC43EA1002108A2001E08A0001D
:1017580022088400200883138000220A84000008DD
:10176800031DC12B22088400A0300002031CC12BDA
:10177800220A84008001800ACF2B220A84000003F9
:10178800031DD92B22088400603000020318D92BCE
:10179800220A840080012208023E84000008A0007A
:1017A8002208033E8400200880070130A00020089A
:1017B800DA0706305A02031CF02BDA01F02B8130CD
:1017C800EE2B8930EE2B9130EE2B9930EE2BA13099
:1017D800EE2BA9309F00042C5A08003A0319E32B7A
:1017E800013A0319E52B033A0319E72B013A0319C8
:1017F800E92B073A0319EB2B013A0319ED2B042CBB
:1018080081010B110430A0002008E20008009A2C86
:10181800031083120313881F0314031C172C83124D
:10182800031388171A2C83120313881361080319EA
:1018380008000130E1020A128A15AE2408000310DC
:1018480083120313881F0314031C2E2C8312031303
:101858008817312C83120313881318306102031878
:1018680008000130A8002808E1070A128A15AE24EA
:101878000800031083120313881F0314031C482C49
:101888008312031388174B2C8312031388135908E8
:10189800803AA800831603132908803A8312031399
:1018A800A802031808000130A8002808D9070A125E
:1018B8008A15AE240800031083120313881F03142B
:1018C800031C6A2C8312031388176D2C83120313CD
:1018D8008813831603132808803A83120313A80079
:1018E8005908803AA80203180800FF30A800280801
:1018F800D9070A128A15AE240800031083120313AD
:10190800881F0314031C8C2C8312031388178F2C35
:101918008312031388136008031D962C0A128A1574
:10192800282008000A128A11F420080083120313E1
:101938005608003A03190C2C013A0319232C033AD0
:1019480003193D2C013A03195F2C073A0319812C1E
:10195800AD2C0800033083120313A4002408A00050
:1019680061080A168A116C270A128A15903E8400AB
:1019780083120313590883170007A5002508831647
:101988000313A700033083120313A4002408A00044
:1019980061080A168A116C270A128A15013E903EC0
:1019A80084008317000883120313A50025088316F3
:1019B8000313B300033083120313A4002408A00008
:1019C80061080A168A116C270A128A15023E903E8F
:1019D80084008317000883120313A50025088316C3
:1019E8000313BF002708803A83120313A400831649
:1019F80003132808803A83120313A40203181A2D2C
:101A0800831603132703FF3A280783120313A4003E
:101A18002408A6002608A400240883160313A70791
:101A2800831203132608A4002408D9078316031376
:101A38002908803A83120313A40083160313270886
:101A4800803A83120313A40203183C2D8316031350
:101A58002903FF3A270783120313A4002408A700C9
:101A6800270883160313A702831203132708D90232
:101A7800831603132A0A0319492D0130831203130D
:101A8800A400240883160313AA07360A0319542D41
:101A9800013083120313A400240883160313B60726
:101AA800420A03190800013083120313A400240812
:101AB80083160313C20708002730831203132F026B
:101AC800103003192E02031C7F2D1030A000273080
:101AD800A1002F08A3002E08A2000A128A158D2043
:101AE8000A128A15831203132008303E0A168A1137
:101AF80099270A128A150330831203132F02E8303C
:101B080003192E02031CAD2D0A30A8000030A900CD
:101B1800E830A0000330A1002F08A3002E08A2007F
:101B28000A128A158D200A128A15831203132108B6
:101B3800AB002008AA000A128A1559200A128A1531
:101B4800831203132808303E0A168A1199270A12AD
:101B58008A150030831203132F02643003192E02F2
:101B6800031CDB2D0A30A8000030A9006430A00057
:101B78000030A1002F08A3002E08A2000A128A151F
:101B88008D200A128A15831203132108AB0020083E
:101B9800AA000A128A1559200A128A1583120313F9
:101BA8002808303E0A168A1199270A128A15003029
:101BB800831203132F020A3003192E02031C092E65
:101BC8000A30A8000030A9000A30A0000030A100A7
:101BD8002F08A3002E08A2000A128A158D200A12C7
:101BE8008A15831203132108AB002008AA000A12E1
:101BF8008A1559200A128A15831203132808303EC1
:101C08000A168A1199270A128A150A3083120313B1
:101C1800A8000030A9002F08AB002E08AA000A125D
:101C28008A1559200A128A15831203132808303E90
:101C38000A168A11992708000C3083120313A4008E
:101C48002408A0005C080A168A116C270A128A1553
:101C5800A03E83120313A5002508A700270A8400C5
:101C680083130008A40001300310A40DFF3E031DD8
:101C7800382E0310240DC43EA5002508A600013007
:101C8800A4002408DC0703305C020318DC012708E1
:101C9800033E84000008A4002708053E84000008CD
:101CA8005B052406031D752E2608033E84000008E4
:101CB800803AA4002708073E84000008803AA4025E
:101CC800031C08002708053E84000008A400240817
:101CD800DB043230A4002708063E84002408800074
:101CE80008002708023E84000008A4002708053ED3
:101CF800840000085B052406031D9F2E2708073E65
:101D080084000008803AA4002608033E84000008E6
:101D1800803AA402031C08002708053E8400000836
:101D2800A4002408DB043230A4002708063E8400FF
:101D380024088000080027080A3E840000080319C8
:101D480008002708073E84000008803AA4002608F7
:101D5800033E84000008803AA4020318CC2E26080B
:101D6800023E8400800180032708043E84000008A6
:101D7800A4002408DB052708023E84000008A4000C
:101D88002408DB0427080A3E84000130800208008A
:101D98002608033E84000008803AA4002708073E6E
:101DA80084000008803AA4020318F32E2608023E95
:101DB80084008001800A2708043E84000008A400EB
:101DC8002408DB052708033E84000008A400240833
:101DD800DB0427080A3E8400013080020800270837
:101DE8000A3E840001308002080083120313B20106
:101DF800B101B701D82F3708493E84008313000882
:101E0800031DD42F3708A90001300310A90DFF3E88
:101E1800031D092F0310290D903EB50084300318C7
:101E2800013EB6003608FF00350884000A128A1100
:101E380000210A128A15A9000A128A1100210A1221
:101E48008A15AA002908AD002A08AE000230350715
:101E5800840036080318360AFF000A128A11002186
:101E68000A128A1558020318D42F5808A9002907FE
:101E78002D0784002E0803182E0AFF000A128A1163
:101E880000210A128A15B3000A128A1100210A12C7
:101E98008A15B4005109A9005209AA00A90A031910
:101EA800AA0A33082907AB0034080318340A2A079A
:101EB800AC00AC1B6E2F5109A9005209AA00A90A4F
:101EC8000319AA0A33082907AF0034080318340A8B
:101ED8002A07852F5109A9005209AA00A90A03193E
:101EE800AA0A33082907AB0034080318340A2A075A
:101EF800AC00AB09AC09AB0A0319AC0A2B08AF005C
:101F08002C08B0003008803AFF0080307F02031DA3
:101F18008F2F11302F02031C9A2F831203133708B7
:101F2800493E840083138001800AD42F0230831233
:101F380003133507840036080318360AFF000A120F
:101F48008A1100210A128A15FF3EA900FF300318E2
:101F58000030AA002A08803A803C031DB52F2908C2
:101F68005802031CD02F83120313D701D70A32302B
:101F7800A9002908D500033035078400360803185E
:101F8800360AFF000A128A1100210A128A15A900CE
:101F98002908D600B201B20A83120313B101B10AAB
:101FA8000130A9002908B707063037020318DF2FC8
:101FB80032080319FF2E32080319E62F0A128A1570
:101FC8000B2408008312031331080319F02F013082
:101FD800A9002908D8070800D801B7010630370238
:101FE800031808003708493E840083138001013034
:081FF800A9002908B707F22F28
:102E7C0064008001840A04060319003404063F2F01
:102E8C0079080319080064000A168A117F270A16AC
:102E9C008A11462F0B1D08000B08831203130C1309
:102EAC001F150130A0002008E20008008312031354
:102EBC003108AF003008AE000A128A1560250A16D8
:102ECC008A1120300A168A119927080083120313DD
:102EDC00A300A201231C762F2008A1002108A20721
:102EEC000310A00D0310A30C2308031D702F220840
:102EFC000800790803190800831203130C1E08003C
:102F0C000C127708103E84008317000899000130DA
:102F1C00A0002008F7070130F90240307702031CAB
:102F2C000800F701080083120313A1004030790256
:102F3C00031808002108A0007808103E840020081F
:102F4C00831780000130A0002008F8070130A00092
:102F5C002008F90740307802031C0800F80108002B
:102F6C0083120313A5002508A4002408A600013031
:102F7C00A2020030031CA303A302220A0319230A92
:102F8C00031908002008A4002608840024088313D1
:102F9C0080000130A4002408A607BD2F0C3083123A
:102FAC000313A4002408A0005C080A168A116C27DD
:102FBC000A168A11A03E83120313A5002508A60049
:102FCC002608063E840083130008031D080026080B
:102FDC00043E84000008A4002408DB052608033EF8
:102FEC0084000008A4002408DB041930A400240881
:042FFC00E3000800E6
:02400E007E3FF3
:00000001FF
